:400000000080002011000000750600007506000008B5044B1A6803F53F5302331A6000F031FB00BFFA46004010B5054C237833B9044B13B10448AFF300800123237010BD55
:400040005081FF1F0000000060160000084B10B51BB108490848AFF300800848036803B910BD074B002BFBD0BDE81040184700BF000000005481FF1F60160000C880FF1F06
:400080000000000008B500F0A5FB002000F040F808BD00BF08B500F049FD012000F038F808BD00BF08B500F081FF022000F030F808BD00BF08B500F009FC00F059FC00F09D
:4000C00011FF4FF40061024800F0EEF808BD00BF8C81FF1F08B562B6094800F06DFB094800F016FD084800F053FFFFF7E3FF00F063F84FF40061054800F088F8F9E700BFF6
:400100008500000095000000A50000008C81FF1F08B501280BD010B1022804D00BE00122074B1A7008BD0122054B5A7008BD0122034B9A7008BD034800F07CFC08BD00BF2D
:400140006C81FF1F6416000008B501280BD010B1022804D00BE00022074B1A7008BD0022054B5A7008BD0022034B9A7008BD034800F060FC08BD00BF6C81FF1F64160000EC
:4001800008B501280BD010B1022804D00BE0084B1878C0B208BD064B5878C0B208BD044B9878C0B208BD034800F044FC002008BD6C81FF1F6416000008B50021022000F0F7
:4001C000A1F80121002000F09DF80021012000F099F808BD08B50021022000F093F80021084600F08FF80121084600F08BF808BD08B50121022000F085F80021084600F041
:4002000081F80021012000F07DF808BD38B5254BDB78032B45D8DFE803F0021223360020FFF7AEFF00283CD0FFF7D4FF0020FFF78BFF00F06BFE01221A4BDA7038BD012016
:40024000FFF79EFF68B300F0A1FB732829D10120FFF77AFF00F04CF80222124BDA7038BD04460D460220FFF78BFFD0B10220FFF76BFFFFF7BDFF2946204600F0EDFB032265
:40028000084BDA7038BD0120FFF77AFF48B100F07DFB6F2805D10120FFF756FF0122014BDA7038BD6C81FF1FF8B506460F46030C4FF480420121022000F032FE0A4D287074
:4002C00001F0E0F8094C20700623FE22394601F0F3F8B2B244F61061207801F001F92178287801F0A1F8F8BD8D89FF1F8C89FF1F08B50121024B187801F04EF808BD00BFC4
:400300008D89FF1F38B50D4603281ED8DFE800F002070C18084600F011FA002038BD084600F018FA002038BD084600F01FFA002038BD29462046FFF7E5FF0134E4B200E0BB
:400340000024022CF5D9002038BD6FF0130038BDFEE700BFF0B40022174611E050F82760F3B226F0FF0608E001EB420511F812406D78A5550132013BDBB2002BF4D1013721
:400380001D2FEBD9F0BC7047114B1B78DBB203F00701104A11701B090132137080220E4B1A7042F21002C0331A80102203F69C031A70022268331A7040F2011246331A8051
:4003C000012215331A704422A3F2E5231A707047CF0100496E5800403C51004008B50A46002101F034F908BD08B501F025F908BD38B50024354B1C80502202331A704FF495
:400400009C7202331A801823314A137040F65F11023211800232137042F6DF61023211800232137004222B492B48FFF7DDFF02222A4B1A7008224FF040231A70032103F51C
:4004400000731970264B1B78DBB226490B70264B1A8041F25122023B1A8019250CE0234B1B7803F0010343EA440404F003044FF4F07001F0A5F8013D0DB1032CEFD115B901
:400480000320FFF765FF1A4B4FF480721A8007221A70002217490A704820023108701A700222033B1A7004220A331A70124A137843F00F031370013A137843F00103137037
:4004C000013A137843F08003137038BD804000408640004090040048004100400043004008010049A146004022420040254200400440004006400040A2430040012807D827
:40050000044B53F820201844017A13780B431370704700BF74160000012808D8044B53F820201844017A137823EA0103137070477416000038B572B63A4A137843F0040336
:40054000137000240BE0384863001A19510001440A46098AD068FFF741FF0134E4B2082CF1D900240BE03049A3001819420088188022816C406CFFF737FF0134E4B2002C87
:40058000F1D02A494FF09040FFF7E4FE0A25284B1D7004212748FFF721FF042226492748FFF722FF04212648FFF718FF254A137843F0020313701032137843F0020313704F
:4005C000214C237843F040032370A2F58632513A137843F01003137008221C491C48FFF703FF08221B491C48FFF7FEFE2A461B491B48FFF7F9FE1B4A137843F00803137018
:40060000194D61232B70FFF7F3FE81232B700122164B1A70FFF7B8FE0E2221461448FFF7E3FE38BDE846004074160000780000488358004000760040940400485076004027
:400640000876004003500140A043004074040048F25100407C040048125100408404004820510040224300400048004004000840B043004008B500F0B3FF03680C2B00D158
:40068000FEE7FEE708B5104E104D16E029686B68AC68002204E051F8040B43F8040B0432A242F8D1E868002203E0002143F8041B04328242F9D11035013E002EE6D100F012
:4006C00095FFFFF707FDFEE701000000B417000008B5114A114B1A60114A136843F40073136000230AE0032B03D80E4A52F8231000E00D490D4A42F8231001332F2BF2D99C
:400700000B4B1A780B4B1A70084A0B4B1A60FFF711FF00F027FE08BD0004FA050CED00E014ED00E000000000750600000080FF1FBC760040C080FF1F08ED00E0044A13789B
:4007400003F07F03C001C0B218431070704700BF20510040044A137803F0BF03800100F0400018431070704720510040044A137803F0DF03400100F02000184310707047BC
:4007800020510040014B1B681864704708ED00E04001C0B2014B1870704700BF00E400E00122014B1A60704700E100E00122014B1A60704780E100E010B50446FFF7F6FFB4
:4007C0002046FFF7DFFF0720FFF7E2FFFFF7E8FF10BD00BF0122014B1A60704780E200E010B500F033FC00F0C1FE074C0121207800F0D2FD0121607800F0CEFD002000F052
:4008000041FC00F0D9FB10BD7081FF1F70B505460E464FF48043020C0121084600F0DAFB094C2070A07801230246314600F044FE45F68332A9B2A07800F052FEA178207868
:4008400000F0F2FD70BD00BF7081FF1F70B505460E464FF48043020C0121084600F0D8FB094C6070E07801230246314600F024FE45F68332A9B2E07800F032FEE17860782D
:4008800000F0D2FD70BD00BF7081FF1F10B500F021FC022000F0E8FB002000F00BFC00F087FE00F0EFFD074CA07000F0EBFDE070054C64212046FFF7A9FF64216018FFF7F7
:4008C000C5FF10BD7081FF1FC416000008B5054B1B7923B9FFF7DAFF0122024B1A71FFF77FFF08BD7081FF1F08B572220B4B1A702022043B1A700A49032000F00BFE07211C
:40090000032000F01BFE0622064B1A70472210331A70022251331A7008BD00BF8E640040810A00002B64004010B500F051FE04460D4A137843F020031370043A137843F00B
:40094000100313700232137843F0100313700823064A1360A2F5C072136000F0D1FB204600F03AFE10BD00BF9E64004080E200E008B5054B1B7823B9FFF7B6FF0122024B3E
:400980001A70FFF7D1FF08BD7681FF1F084B1B78DBB213F0200F06D0064A1078C0B213F01E0F02D17047002070470020704700BF6A6400404A64004010B4194B99885B88F9
:4009C0009BB2994205D25A1E914214BF0022012206E0CA1A40F2FF74A24214BF00220122002AEAD1994207D10E4B1B7813F0040F02D10D4B187010E0B1F5006F00D30021E4
:400A00000A4B58540131064B9980064B1B7813F0020F02D00822064B1A6010BC704700BF7681FF1F6C6400404F6400409089FF1F00E200E038B5074B1B782BB938BDFFF766
:400A4000BBFF0134A4B201E005460024285D0028F5D138BD7681FF1F084B1B7833B97047305DFFF7A9FF0134A4B203E070B50D4606460024AC42F3D370BD00BF7681FF1FA5
:400A800015E0114B1B889BB2B3F5006F02D300220D4B1A800C4A13889BB20C49CB5CDBB20B490B7013889BB201339BB21380064B1B889BB2074A1288934204D0064B1B782A
:400AC00013F0040FDDD070477881FF1F9089FF1F4F6400407A81FF1F6C640040014B1B689864704708ED00E04001C0B2014B1870704700BF02E400E00422014B1A60704755
:400B000000E100E00422014B1A60704780E100E010B50446FFF7F6FF2046FFF7DFFF0720FFF7E2FFFFF7E8FF10BD00BF0422014B1A60704780E200E010B59DF80840012CC1
:400B400051D1013809282ED8DFE800F0052D2D052D2D0F192D230F2B03D92548007840B222E02448007840B21EE00F2B03D92248007840B218E02148007840B214E00F2B50
:400B800003D91F48007840B20EE01E48007840B20AE00F2B03D91C48007840B204E01B48007840B200E0002001EB401101FB02F1C90B8AB20D2B0BD8C3F10E0289B21141A3
:400BC0008AB2611E124800EB810101338B7005E0631E0F4901EB83030F219970013C0C4B23F8242010BD002000F088FC10BD00BF180100491C010049190100491D01004969
:400C00001A0100491E0100491B0100491F0100498081FF1FF8B5074600F0DAFC06460D4D2B7843F003032B700B4C237843F0030323700A4B1F70032000F062FC2B7803F075
:400C4000FC032B70237803F0FC032370304600F0C3FCF8BDF8460040F94600409258004038B500222F4B1A7101285AD138222E4B1A70042202331A70062201331A70002405
:400C800001331C7001331C703F2201331A7002331C7001331C7001331C7001250A331D70502203F527631A700A23204A13702C210132117001321470442103321170482190
:400CC00001321170013215700232147001321470013213704322164B1A705220FFF79AFF5822144B1A7001331C700223124A137001321370114B1C7001331C70204600F037
:400D00001DFA43F233320E4B1A602946052000F039FA2946BA2000F0B9FA0A491D2000F0F9FB38BD8081FF1F004E00408558004091580040945800409A5800409C5800409E
:400D40009091FF1F1D0F0000F0B583B0284D01272F70284E00247471102000F001FA102000F082FA07211D2000F0E8FB0422224B1A7001331C7007331C70204A137843F0BB
:400D8000180313701E4B1C7003F2F5231C7001331C700A22A3F209331A7001331C7002331C705B2205331A705E2201331A7004331C701422A3F68C231A70009710234FF4EA
:400DC000004248F6F0510220FFF7B6FE2B78013B06EB83039A780B4B1A702B78013B36F82320094B1A802878FFF73AFF03B0F0BDCC80FF1F8081FF1F96580040075B004058
:400E0000935800400E4E00400C4E004070B500F0DFFB06462A4B1B782A4B1A7842F001021A701A7842F010021A7010331A7842F001021A701A7842F010021A70224D2B78E2
:400E400043F002032B70214C237843F0020323701F4A137843F003031370032000F050FB2B7803F0FD032B70237803F0FD032370184A137843F0060313707A22164B1A7039
:400E8000164A137843F0010313701032137843F0010313700F3A137843F0010313701032137843F0010313704FF000530C4A1360A2F5C0721360304600F08EFB70BD00BF7F
:400EC000CC80FF1FAA430040F8460040F9460040915800407758004082580040A143004080E200E008B5084B9B794BB9064BDB7913F0FF0F01D1FFF727FF0122024B9A715F
:400F0000FFF784FF08BD00BF8081FF1F024A137843F0010313707047004E0040704700BFF0B583B016461F460B4C0A2525700023019300932B460A460146284600F080FA6B
:400F40003A463146207800F055FA0221207800F03FFA207803B0F0BDCD80FF1F014B1B685864704708ED00E04001C0B2014B1870704700BF01E400E00222014B1A607047E2
:400F800000E100E00222014B1A60704780E100E010B50446FFF7F6FF2046FFF7DFFF0720FFF7E2FFFFF7E8FF10BD00BF0222014B1A60704780E200E0054A137843F00403FC
:400FC00013701032137843F004031370704700BFA2430040F0B583B016461F460B4D00242C700194009423460A460146204600F027FA3A463146287800F0FCF902212878B9
:4010000000F0E6F9287803B0F0BD00BFCE80FF1FF0B583B016461F460B4C012525700023019300930A460146284600F009FA3A463146207800F0DEF90221207800F0C8F907
:40104000207803B0F0BD00BFCF80FF1F054A137843F0080313701032137843F008031370704700BFA8430040054B1A7802F0FD021A701A7800F0020010431870704700BF50
:401080002C580040014B1870704700BF835B0040064B1B78C3F3810303F19243063393F83831DBB2024A1370704700BF2C5800400B46004008B5064B1A7802F0F3021A70B8
:4010C0001A7800F00C0010431870FFF7E1FF08BD2C58004008B50020074B187001331870064A137843F008031370FFF7E3FF0220FFF7BAFF08BD00BF2C5800409F5A0040EF
:40110000054A137843F0020313701032137843F002031370704700BFA243004010B5002404E02046FFF7F8F90134E4B2012CF8D9FF22014B1A7010BDD080FF1F10B50446D3
:40114000FFF7ECFF2046FFF7D9F9014B1C7010BDD080FF1F014B188880B2704780400040034B1A7800F0F80010431870704700BF82400040024B187800F00700704700BF13
:401180008240004070B505460E46FFF7F3FF0446FFF7E0FFA84256D02B4B1B7803F0010294B900B185B938B9284B1D80284A137803F0BF03137070BD254A137843F0400344
:4011C0001370224B1D8070BD22B3002321490B7001240F310C7004310B700C390B7803F07F030B701A4B1B7813F0080F00D08DB9194B18800721013B1970164B1B7813F007
:40120000010FFAD110490B7803F0FE030B700021104B19700C4B1B7813F0010F0DD00E4B1D800EB1032200E001220A4B1A70094B1B7813F0010FFAD170BD044B1D800249C4
:401240000B7813430B7070BDA243004080400040824000400140004002400040014B188880B2704700410040034B1A7800F0F80010431870704700BF02410040024B1878F4
:4012800000F00700704700BF0241004070B505460E46FFF7F3FF0446FFF7E0FFA84256D02B4B1B7803F0010294B900B185B938B9284B1D80284A137803F0BF03137070BDC5
:4012C000254A137843F040031370224B1D8070BD22B3002321490B70012413310C7004390B7008390B7803F07F030B701A4B1B7813F0080F00D08DB9194B18800721013B0E
:401300001970164B1B7813F0010FFAD110490B7803F0FE030B700021104B19700C4B1B7813F0010F0DD00E4B1D800EB1032200E001220A4B1A70094B1B7813F0010FFAD1A7
:4013400070BD044B1D8002490B7813430B7070BDA1430040004100400241004001400040024000400B4A7F2313708021517007E0DA0002F1804202F5F042013BDBB2137096
:40138000002BF5D1DB0003F1804303F5F04300221A707047D480FF1F172815D831B103010A495A5C42F020025A5405E0030107495A5C02F0DF025A540001044A835C43F0BC
:4013C0000103835400207047012070471070004017280BD80001064A835C03F0F103490001F00E011943815400207047012070471070004041F6FF73994201D14FF4005197
:4014000041F6FF739A4201D14FF40052172808D8C00000F1804000F5EC408180C280002070470120704700BF172805D8034B03EB00104172002070470120704710700040D4
:4014400017281BD810B4C00000F1804404F5EC44D201D2B201F07F01114321709DF804201201D2B203F00F03134363709DF8083003F00F03A3700020E07001E0012070479F
:4014800010BC704710B500F0A3F80A4B5B78182B0BD9084A1478013B5370E30003F1804303F5F0431B78137000E0FF2400F094F8204610BDD480FF1F10F0800F0CD111F4BD
:4014C000704F0BD1C00000F1804000F5F04001808270C37000207047012070470120704710F0800F08D1C00000F1804000F5F0408180C280002070470120704701BE704728
:4015000008B5034B1B7A00FB03F000F059F808BDDC80FF1F70B504460E46074B1D681F2802D90020FFF7EAFF04F01F04103455F8240045F8246070BD08ED00E038B504461C
:401540000D46072902D90020FFF7D8FF1F2C02D90020FFF7D3FF04F01F0000F1604000F564406D01EDB2057038BD00BF084A137843F060031370A2F5A652133A137843F00F
:40158000080313701032137843F008031370704777580040054B1A7802F0FC021A701A7800F0030010431870704700BF5E58004008B50220FFF7EEFF08BD00BF00000000DB
:4015C0000230800803D000BF01380046FCD17047EFF3108072B6704780F31088704700BF014B1868704700BF4C81FF1F0E4B70B51E460E4C0025E41AA410A54204D056F881
:40160000253098470135F8E700F0C2F8084B094C1E46E41AA4100025A54204D056F8253098470135F8E770BD9C1700009C1700009C170000A417000010B5431E0A4491423A
:4016400004D011F8014B03F8014FF8E710BD03460244934202D003F8011BFAE77047000000000000496E76616C6964204576656E74200000035B00402443004040000000D7
:40168000005100401000405100403000C0510040100000000140000A800A0140800500140140000800400140000A004C014000020050014020000000000A0140F4030048DA
:4016C000800000008080808081818182828282838383838484848484848484848484848484848484848484848383838382828282818181808080807F7F7F7E7E7E7D7D7DFA
:401700007D7C7C7C7C7B7B7B7B7B7B7B7B7B7B7A7B7B7B7B7B7B7B7B7B7B7C7C7C7C7D7D7D7D7E7E7E7F7F7FFCFCFCFCFCFCFCFCFCFCFCFCFCFCFCFCFCFCFCFCFCFCFCFCAB
:40174000FCFCFCFCFCFCFCFCFCFCFCFCFCFCFCFCFCFCFCFCFCFCFCFCFCFC03030303030303030303030303030303030303030303030303030303030303030303030303035F
:4017800003030303030303030303030343000000F8B500BFF8BC08BC9E4670474D000000D1060000F8B500BFF8BC08BC9E46704729000000C8170000C880FF1F88000000AA
:4017C00048100000000000000000000001FFFFFFFF0000007F800000030400000000E02EC05D00001800000000366E010000000000000000000000000000000000000000A6
:401800000000000000000000000000008C17000000000000000000000000000000000000000000000000000000000000000000000000000000000000000000000000000005
:40184000000000000000000000000000EC80FF1F000000000000000000000000000000000000000000000000000000000000000000000000000000000000000000000000DE
:401880000000000000000000000000000000000000000000000000000000000000000000000000000000000000000000000000000000000000000000000000000000000028
:4018C00000000000000000000000000000000000000000000000000000000000000000000000000000000000000000000000000000000000000000000000000000000000E8
:4019000000000000000000000000000000000000000000000000000000000000000000000000000000000000000000000000000000000000000000000000000000000000A7
:401940000000000000000000000000000000000000000000000000000000000000000000000000000000000000000000000000000000000000000000000000000000000067
:020000040003F7
:0200000480007A
:4000000001520040015A00400364004001030140020501400107014001090140190A0140460B0140480C0140410D01404E0E0140370F01400117014001190140041A014079
:40004000021B0140074001400941014005420140034301400244014007450140074601400547014006480140034C0140034D0140035001400251014014019F018A388C0FE7
:400080008E72E602E640EE04E404E404850395029903A301B103B902BF01C001C740C9FFCA07CBFFCC40CD20CEF0CF05D008D904DA04DD01DF01E040E1A8E240E320000805
:4000C00001A208880A200B841092132019201A201B0120042108228A278029262B022F803010310832823610370439143E04409843024780480749044A08534056C1578055
:400100005A026004610163028D019010911492069304981099829B249D209EC1A081A210A302A402A508A680AA10AF40B012B140B512C00FC20FC40FCA8FCC6FCE46D01782
:40014000D20CD601D80DE640EA080203040C0502061108100A0C0C101101170219021C091E102020241C26022B022C142F02301F3102342037013E103F415401560458048A
:4001800059045B045C015D105F01800282808301840F8620880C8A238C238E0C8F0890019290942F9504980499049C039D019E409F02A008A80CA904AD04AE23B00FB102F6
:4001C000B2C0B304B42CB501B610B708BA22BE04BF04D804D904DC31DF010004012002800302050106090710080209080A010B040E02108213201501160217041854199074
:400200001B021D011E08218122142540278029202B022E902F08319835013610371439023B803E0C5D015E185F8067408740911592079304944096089A029B249C109D3001
:400240009EC1A081A211A308A508A680C0FFC28FC4BBCA3CCCEECE49D6F0D88003060407050109010D06110115061B061C011D041E062004220124022502260128072B0647
:400280002D0631063607370156025712580459045B045C115D105F01800282A48461850186948706885889018A858B0E930C950C97039E189F08A461A68CA860AA80AE082A
:4002C000AF03B21CB4F0B50FB603B880BA28BB20C024C106C5E0C7BCC832C9FFCAFFCBFFCEF0CF44D00CD804D904DA04DC11DD01DF01E6C0EA40EB02010404040640070436
:400300000A010E0210101110128014201609174019401A011C041D201E26200322012704281029602E8031183280330136013744384139143E043F10452046404D014F1060
:40034000560A57085A085C205E205F1069146B0170807324C074C281C4EECA1ECCDFCE6FD0A0D220D602EC10EC1039803F4059045F012002880131013380340237803C406A
:40038000CCF0CE201380840294409C029D019F80A780C440E6408D0194409D01AB80EE2080409440E4207C08DE0100080B1050089C08C008C208D40445029C08AF10B00CD7
:4003C000D001EA04EC04338083809C08A502CC082440270494409F04B704C8A09C08B502EC0888089C08E001000A0C020E0A00FF100200001C0021003F0600003C060200E5
:40040000000004000000400800014000080200042704180210000001040000081800000100012300400138001F080006000220080000011045060200030E0C0005FFFFFF35
:4004400062A0F0410C00000018000400040404041111000100000000000040020010301000101012000000000000000000000000000000000000000000003000000B0B00E4
:4004800000000000120001F2E200020000000000BB001801000A00000000000000000000000000000000000000000000000000000000000000000000000000000000000075
:4004C00000000000000000000000000000000000000000000000000000000000000000000000000000000000000000000000000000000000000000000000000000000000FC
:4005000000000000000000000000000000000000000000000000000000000000000000000000000000000000000000000000000000000000000000000000000000000000BB
:40054000000000000000000000000000000000000000000000000000000000000000000000000000000000000000000000000000000000000000000000000000000000007B
:40058000000000000000000000000000000000000000000000000000000000000000000000000000000000000000000000000000000000000000000000000000000000003B
:0200000490006A
:0400000000004005B7
:0200000490105A
:04000000BC90ACAF55
:0200000490303A
:02000000ADBC95
:0200000490402A
:4000000000000000000000000000000000000000000000000000000000000000000000000000000000000000000000000000000000000000000000000000000000000000C0
:400040000000000000000000000000000000000000000000000000000000000000000000000000000000000000000000000000000000000000000000000000000000000080
:400080000000000000000000000000000000000000000000000000000000000000000000000000000000000000000000000000000000000000000000000000000000000040
:4000C0000000000000000000000000000000000000000000000000000000000000000000000000000000000000000000000000000000000000000000000000000000000000
:0200000490501A
:0C00000000012E16006900012E1FAE2525
:00000001FF