:400000000080002011000000C1060000C106000008B5044B1A6803F53F5302331A6000F057FB00BFFA46004010B5054C237833B9044B13B10448AFF300800123237010BD97
:400040005081FF1F0000000098160000084B10B51BB108490848AFF300800848036803B910BD074B002BFBD0BDE81040184700BF000000005481FF1F98160000C880FF1F96
:400080000000000008B500F0CBFB002000F040F808BD00BF08B500F06FFD012000F038F808BD00BF08B500F0A7FF022000F030F808BD00BF08B500F02FFC00F07FFC00F0DF
:4000C00037FF4FF40061024800F010F908BD00BF8C81FF1F08B562B6094800F093FB094800F03CFD084800F079FFFFF7E3FF00F069F84FF40061054800F08EF8F9E700BF2F
:400100008500000095000000A50000008C81FF1F08B501280BD010B1022804D00BE00122074B1A7008BD0122054B5A7008BD0122034B9A7008BD034800F0A2FC08BD00BF07
:400140006C81FF1F9C16000008B5032815D8DFE800F0020A060E00220A4B1A7008BD0022084B5A7008BD0022064B9A7008BD054B00221A705A709A7008BD034800F080FCBE
:4001800008BD00BF6C81FF1F9C16000008B501280BD010B1022804D00BE0084B1878C0B208BD064B5878C0B208BD044B9878C0B208BD034800F064FC002008BD6C81FF1F00
:4001C0009C16000008B50021022000F0BDF80121002000F0B9F80021012000F0B5F808BD08B50021022000F0AFF80021084600F0ABF80121084600F0A7F808BD08B50121E5
:40020000022000F0A1F80021084600F09DF80021012000F099F808BD38B5334BDB78032B60D8DFE803F0021E30430020FFF7AEFF002857D0FFF7D4FF0020FFF785FF00F0C1
:400240008BFE294C207901F0D1F923790133DBB223710A2B01D1002222710122224BDA7038BD0120FFF792FF00283BD000F0B4FB732837D10120FFF767FF00F05BF80222AF
:40028000194BDA7038BD04460D460220FFF77EFF40B30220FFF758FFFFF7B0FF2946204600F000FC0322104BDA7038BD0120FFF76DFF60B100F090FB6F2808D10120FFF74C
:4002C00043FF094B0122DA705A7901325A71064B5B790A2B06D1044B0022DA705A710320FFF732FF38BD00BF6C81FF1FF8B506460F46030C4FF480420121022000F036FEA0
:400300000A4D287001F0D6F8094C20700623FE22394601F0E9F8B2B244F61061207801F0F7F82178287801F097F8F8BD8D89FF1F8C89FF1F08B50121024B187801F044F84B
:4003400008BD00BF8D89FF1F38B50D4603281ED8DFE800F002070C18084600F015FA002038BD084600F01CFA002038BD084600F023FA002038BD29462046FFF7E5FF013461
:40038000E4B200E00024022CF5D9002038BD6FF0130038BDFEE700BFF0B40022174611E050F82760F3B226F0FF0608E001EB420511F812406D78A5550132013BDBB2002B68
:4003C000F4D10137222FEBD9F0BC7047114B1B78DBB203F00701104A11701B090132137080220E4B1A7042F21002C0331A80102203F69C031A70022268331A7040F2011222
:4004000046331A80012215331A704422A3F2E5231A707047CF0100496E5800403C51004008B50A46002101F02EF908BD08B501F01FF908BD38B500243F4B1C805022023310
:400440001A70272202331A8018233C4A13702F21023211800232137044210232118002321370772102321180023213709F2102321180023213704FF49C7102321180023250
:40048000137042F6DF61023211800232137004222B492C48FFF7CAFF02222B4B1A7008224FF040231A70032103F500731970274B1B78DBB226490B70264B1A8041F2512239
:4004C000023B1A8019250CE0234B1B7803F0010343EA440404F003044FF4F07001F08CF8013D0DB1032CEFD115B90320FFF752FF1A4B4FF480721A8007221A7000221849EE
:400500000A704820023108701A700222033B1A7004220A331A7003F297331A78FF221A70104A137843F001031370013A137843F08003137038BD00BF804000408640004077
:4005400094060048004100400043004008010049A146004022420040254200400440004006400040A1430040012807D8044B53F820201844017A13780B431370704700BF18
:40058000AC160000012808D8044B53F820201844017A137823EA010313707047AC16000038B572B6324A137843F00403137000240BE0304863001A19510001440A46098AB8
:4005C000D068FFF72DFF0134E4B2072CF1D92A494FF09040FFF7E0FE0A25284B1D7004212748FFF71DFF042226492748FFF71EFF04212648FFF714FF254A137843F00203C9
:4006000013701032137843F002031370214C237843F040032370A2F58632513A137843F01003137008221C491C48FFF7FFFE08221B491C48FFF7FAFE2A461B491B48FFF77D
:40064000F5FE1B4A137843F008031370194D61232B70FFF7EFFE81232B700122164B1A70FFF7B4FE0E2221461448FFF7DFFE38BDE8460040AC1600008C000048835800409F
:400680000076004098060048507600400876004003500140A043004078060048F251004080060048125100408806004820510040224300400048004004000840B043004036
:4006C00008B500F0A9FF03680C2B00D1FEE7FEE708B5104E104D16E029686B68AC68002204E051F8040B43F8040B0432A242F8D1E868002203E0002143F8041B043282422D
:40070000F9D11035013E002EE6D100F08BFFFFF7E1FCFEE7010000005C1B000008B5114A114B1A60114A136843F40073136000230AE0032B03D80E4A52F8231000E00D49DA
:400740000D4A42F8231001332F2BF2D90B4B1A780B4B1A70084A0B4B1A60FFF721FF00F019FE08BD0004FA050CED00E014ED00E000000000C10600000080FF1FBC760040FC
:40078000C080FF1F08ED00E0044A137803F07F03C001C0B218431070704700BF20510040044A137803F0BF03800100F0400018431070704720510040044A137803F0DF0353
:4007C000400100F0200018431070704720510040014B1B681864704708ED00E04001C0B2014B1870704700BF00E400E00122014B1A60704700E100E00122014B1A607047CC
:4008000080E100E010B50446FFF7F6FF2046FFF7DFFF0720FFF7E2FFFFF7E8FF10BD00BF0122014B1A60704780E200E010B500F025FC00F0B3FE064C0121207800F0C4FDC6
:400840000121607800F0C0FD002000F033FC10BD7281FF1F70B505460E464FF48043020C0121084600F0CEFB094C2070A07801230246314600F038FE45F68332A9B2A0784A
:4008800000F046FEA178207800F0E6FD70BD00BF7281FF1F70B505460E464FF48043020C0121084600F0CCFB094C6070E07801230246314600F018FE45F68332A9B2E0787B
:4008C00000F026FEE178607800F0C6FD70BD00BF7281FF1F10B500F015FC022000F0DCFB002000F0FFFB00F07BFE00F0E3FD084CA07000F0DFFDE070064C4FF47A712046AB
:40090000FFF7A8FF642104F57A70FFF7C3FF10BD7281FF1FE816000008B5054B1B7923B9FFF7D8FF0122024B1A71FFF77FFF08BD7281FF1F08B572220B4B1A702022FD3BE4
:400940001A700A49032000F0FDFD0721032000F00DFE0622064B1A70472210331A70022250331A7008BD00BF88650040CD0A00002C64004010B500F047FE04460D4A13785F
:4009800043F020031370FD3A137843F0100313700132137843F0100313700823064A1360A2F5C072136000F0C3FB204600F030FE10BD00BF9865004080E200E008B5054BD8
:4009C0001B7823B9FFF7B6FF0122024B1A70FFF7D1FF08BD7881FF1F084B1B78DBB213F0200F06D0064A1078C0B213F01E0F02D17047002070470020704700BF6B64004046
:400A00004864004010B4194B99885B889BB2994205D25A1E914214BF0022012206E0CA1A40F2FF74A24214BF00220122002AEAD1994207D10E4B1B7813F0040F02D10D4B0C
:400A4000187010E0B1F5006F00D300210A4B58540131064B9980064B1B7813F0020F02D00822064B1A6010BC704700BF7881FF1F6C6400404F6400409089FF1F00E200E044
:400A800038B5074B1B782BB938BDFFF7BBFF0134A4B201E005460024285D0028F5D138BD7881FF1F084B1B7833B97047305DFFF7A9FF0134A4B203E070B50D460646002477
:400AC000AC42F3D370BD00BF7881FF1F15E0114B1B889BB2B3F5006F02D300220D4B1A800C4A13889BB20C49CB5CDBB20B490B7013889BB201339BB21380064B1B889BB2AB
:400B0000074A1288934204D0064B1B7813F0040FDDD070477A81FF1F9089FF1F4F6400407C81FF1F6C640040014B1B689864704708ED00E04001C0B2014B1870704700BF01
:400B400002E400E00422014B1A60704700E100E00422014B1A60704780E100E010B50446FFF7F6FF2046FFF7DFFF0720FFF7E2FFFFF7E8FF10BD00BF0422014B1A60704729
:400B800080E200E010B59DF80840012C51D1013809282ED8DFE800F0052D2D052D2D0F192D230F2B03D92548007840B222E02448007840B21EE00F2B03D92248007840B2F8
:400BC00018E02148007840B214E00F2B03D91F48007840B20EE01E48007840B20AE00F2B03D91C48007840B204E01B48007840B200E0002001EB401101FB02F1C90B8AB2D6
:400C00000D2B0BD8C3F10E0289B211418AB2611E124800EB810101338B7005E0631E0F4901EB83030F219970013C0C4B23F8242010BD002000F07AFC10BD00BF18010049FA
:400C40001C010049190100491D0100491A0100491E0100491B0100491F0100498081FF1FF8B5074600F0D0FC06460D4D2B7843F003032B700B4C237843F0030323700A4BA5
:400C80001F70032000F054FC2B7803F0FC032B70237803F0FC032370304600F0B9FCF8BDF8460040F94600409258004038B500222F4B1A7101285AD138222E4B1A70042210
:400CC00002331A70062201331A70002401331C7001331C703F2201331A7002331C7001331C7001331C7001250A331D70502203F527631A700A23204A13702C2101321170C2
:400D000001321470442103321170482101321170013215700232147001321470013213704322164B1A705220FFF79AFF5822144B1A7001331C700223124A137001321370B9
:400D4000114B1C7001331C70204600F00FFA43F233320E4B1A602946052000F02BFA2946BA2000F0ABFA0A491D2000F0EBFB38BD8081FF1F004E004085580040915800402A
:400D8000945800409A5800409C5800409091FF1F690F0000F0B583B0284D01272F70284E00247471102000F0F3F9102000F074FA07211D2000F0DAFB0422224B1A70013342
:400DC0001C7007331C70204A137843F0180313701E4B1C7003F2F5231C7001331C700A22A3F209331A7001331C7002331C705B2205331A705E2201331A7004331C7014220F
:400E0000A3F68C231A70009710234FF4004248F6F0510220FFF7B6FE2B78013B06EB83039A780B4B1A702B78013B36F82320094B1A802878FFF73AFF03B0F0BDCC80FF1F27
:400E40008081FF1F96580040075B0040935800400E4E00400C4E004070B500F0D5FB06462A4B1B782A4B1A7842F001021A701A7842F010021A7010331A7842F001021A702F
:400E80001A7842F010021A70224D2B7843F002032B70214C237843F0020323701F4A137843F003031370032000F042FB2B7803F0FD032B70237803F0FD032370184A1378DB
:400EC00043F0060313707A22164B1A70164A137843F0010313701032137843F0010313700F3A137843F0010313701032137843F0010313704FF000530C4A1360A2F5C07247
:400F00001360304600F084FB70BD00BFCC80FF1FAA430040F8460040F9460040915800407758004082580040A143004080E200E008B5084B9B794BB9064BDB7913F0FF0F43
:400F400001D1FFF727FF0122024B9A71FFF784FF08BD00BF8081FF1F024A137843F0010313707047004E0040704700BFF0B583B016461F460B4C0A252570002301930093A2
:400F80002B460A460146284600F072FA3A463146207800F047FA0221207800F031FA207803B0F0BDCD80FF1F014B1B685864704708ED00E04001C0B2014B1870704700BF52
:400FC00001E400E00222014B1A60704700E100E00222014B1A60704780E100E010B50446FFF7F6FF2046FFF7DFFF0720FFF7E2FFFFF7E8FF10BD00BF0222014B1A607047AC
:4010000080E200E0F0B583B016461F460B4D00242C700194009423460A460146204600F027FA3A463146287800F0FCF90221287800F0E6F9287803B0F0BD00BFCE80FF1FE4
:40104000F0B583B016461F460B4C012525700023019300930A460146284600F009FA3A463146207800F0DEF90221207800F0C8F9207803B0F0BD00BFCF80FF1F054A1378C3
:4010800043F0080313701032137843F008031370704700BFA8430040054B1A7802F0FD021A701A7800F0020010431870704700BF2C580040014B1870704700BF835B0040E2
:4010C000064B1B78C3F3810303F19243063393F83831DBB2024A1370704700BF2C5800400B46004008B5064B1A7802F0F3021A701A7800F00C0010431870FFF7E1FF08BDA0
:401100002C58004008B50020074B187001331870064A137843F008031370FFF7E3FF0220FFF7BAFF08BD00BF2C5800409F5A0040054A137843F0400313701032137843F0DF
:4011400040031370704700BFA243004010B5002404E02046FFF716FA0134E4B2012CF8D9FF22014B1A7010BDD080FF1F10B50446FFF7ECFF2046FFF7F7F9014B1C7010BDF9
:40118000D080FF1F014B188880B2704780400040034B1A7800F0F80010431870704700BF82400040024B187800F00700704700BF8240004070B505460E46FFF7F3FF04468F
:4011C000FFF7E0FFA84256D02B4B1B7803F0010294B900B185B938B9284B1D80284A137803F0BF03137070BD254A137843F040031370224B1D8070BD22B3002321490B7065
:4012000001240F310C7004310B700C390B7803F07F030B701A4B1B7813F0080F00D08DB9194B18800721013B1970164B1B7813F0010FFAD110490B7803F0FE030B70002116
:40124000104B19700C4B1B7813F0010F0DD00E4B1D800EB1032200E001220A4B1A70094B1B7813F0010FFAD170BD044B1D8002490B7813430B7070BDA24300408040004025
:40128000824000400140004002400040014B188880B2704700410040034B1A7800F0F80010431870704700BF02410040024B187800F00700704700BF0241004070B50546FA
:4012C0000E46FFF7F3FF0446FFF7E0FFA84256D02B4B1B7803F0010294B900B185B938B9284B1D80284A137803F0BF03137070BD254A137843F040031370224B1D8070BDBB
:4013000022B3002321490B70012413310C7004390B7008390B7803F07F030B701A4B1B7813F0080F00D08DB9194B18800721013B1970164B1B7813F0010FFAD110490B78C0
:4013400003F0FE030B700021104B19700C4B1B7813F0010F0DD00E4B1D800EB1032200E001220A4B1A70094B1B7813F0010FFAD170BD044B1D8002490B7813430B7070BDB9
:40138000A1430040004100400241004001400040024000400B4A7F2313708021517007E0DA0002F1804202F5F042013BDBB21370002BF5D1DB0003F1804303F5F04300226B
:4013C0001A707047D480FF1F172815D831B103010A495A5C42F020025A5405E0030107495A5C02F0DF025A540001044A835C43F00103835400207047012070471070004002
:4014000017280BD80001064A835C03F0F103490001F00E011943815400207047012070471070004041F6FF73994201D14FF4005141F6FF739A4201D14FF40052172808D895
:40144000C00000F1804000F5EC408180C280002070470120704700BF172805D8034B03EB0010417200207047012070471070004017281BD810B4C00000F1804404F5EC440B
:40148000D201D2B201F07F01114321709DF804201201D2B203F00F03134363709DF8083003F00F03A3700020E07001E00120704710BC704710B500F0A7F80A4B5B78182BB1
:4014C0000BD9084A1478013B5370E30003F1804303F5F0431B78137000E0FF2400F098F8204610BDD480FF1F10F0800F0CD111F4704F0BD1C00000F1804000F5F040018005
:401500008270C37000207047012070470120704710F0800F08D1C00000F1804000F5F0408180C280002070470120704701BE704708B5034B1B7A00FB03F000F05DF808BD01
:40154000DC80FF1F70B504460E46074B1D681F2802D90020FFF7EAFF04F01F04103455F8240045F8246070BD08ED00E038B504460D46072902D90020FFF7D8FF1F2C02D9FF
:401580000020FFF7D3FF04F01F0000F1604000F564406D01EDB2057038BD00BF084A137843F060031370A2F5A652133A137843F0080313701032137843F00803137070476D
:4015C00077580040054B1A7802F0FC021A701A7800F0030010431870704700BF5E58004008B50220FFF7EEFF08BD00BF014B1870704700BF7A6400400230800803D000BFBA
:4016000001380046FCD17047EFF3108072B6704780F31088704700BF014B1868704700BF4C81FF1F0E4B70B51E460E4C0025E41AA410A54204D056F8253098470135F8E743
:4016400000F07AFA084B094C1E46E41AA4100025A54204D056F8253098470135F8E770BD441B0000441B0000441B00004C1B000010B5431E0A44914204D011F8014B03F8B5
:40168000014FF8E710BD03460244934202D003F8011BFAE77047000000000000496E76616C6964204576656E74200000035B00402443004040000000005100401000405189
:4016C00000403000C0510040100000000140001000140140000800400140000A004C01400002005001402000808080808080808080808080808080808080808080808080A0
:40170000808080808080808080818181818181818181818181818181818181818181818181818181818181818181828282828282828282828282828282828282828282825C
:4017400082828282828282828282828282828283838383838383838383838383838383838383838383838383838383838383838383838383838383838383838384848484B4
:401780008484848484848484848484848484848484848484848484848484848484848484848484848484848484848484848484848484848484848484848484848484848429
:4017C00084848484848484848484848484848484848484848484848484848484848484848484848484848484848484848484848484848484848484848484848484848484E9
:4018000084848484848484848484848484848484848484848484848484848484848484848484848484848484848484848484848484848484848484848484848484848484A8
:4018400084848484848484848483838383838383838383838383838383838383838383838383838383838383838383838383838383838383838382828282828282828282A9
:4018800082828282828282828282828282828282828282828282828282828281818181818181818181818181818181818181818181818181818181818181818180808080D1
:4018C00080808080808080808080808080808080808080808080808080808080807F7F7F7F7F7F7F7F7F7F7F7F7F7F7F7F7F7F7F7F7F7F7F7F7F7F7F7F7F7F7F7F7E7E7E0E
:401900007E7E7E7E7E7E7E7E7E7E7E7E7E7E7E7E7E7E7E7E7E7E7E7E7E7E7E7E7E7E7D7D7D7D7D7D7D7D7D7D7D7D7D7D7D7D7D7D7D7D7D7D7D7D7D7D7D7D7D7D7D7D7D7D49
:401940007D7D7D7C7C7C7C7C7C7C7C7C7C7C7C7C7C7C7C7C7C7C7C7C7C7C7C7C7C7C7C7C7C7C7C7C7C7C7C7C7C7C7C7C7C7C7C7C7B7B7B7B7B7B7B7B7B7B7B7B7B7B7B7B74
:401980007B7B7B7B7B7B7B7B7B7B7B7B7B7B7B7B7B7B7B7B7B7B7B7B7B7B7B7B7B7B7B7B7B7B7B7B7B7B7B7B7B7B7B7B7B7B7B7B7B7B7B7B7B7B7B7B7B7B7B7B7B7B7B7B67
:4019C0007B7B7B7B7B7B7B7B7B7B7B7B7B7B7B7B7B7B7B7B7B7B7A7B7B7B7B7B7B7B7B7B7B7B7B7B7B7B7B7B7B7B7B7B7B7B7B7B7B7B7B7B7B7B7B7B7B7B7B7B7B7B7B7B28
:401A00007B7B7B7B7B7B7B7B7B7B7B7B7B7B7B7B7B7B7B7B7B7B7B7B7B7B7B7B7B7B7B7B7B7B7B7B7B7B7B7B7B7B7B7B7B7B7B7B7B7B7B7B7B7B7B7B7B7B7B7B7B7C7C7CE3
:401A40007C7C7C7C7C7C7C7C7C7C7C7C7C7C7C7C7C7C7C7C7C7C7C7C7C7C7C7C7C7C7C7C7C7C7C7C7C7C7C7C7C7C7D7D7D7D7D7D7D7D7D7D7D7D7D7D7D7D7D7D7D7D7D7D50
:401A80007D7D7D7D7D7D7D7D7D7D7D7D7D7D7D7E7E7E7E7E7E7E7E7E7E7E7E7E7E7E7E7E7E7E7E7E7E7E7E7E7E7E7E7E7E7E7E7E7F7F7F7F7F7F7F7F7F7F7F7F7F7F7F7FA5
:401AC0007F7F7F7F7F7F7F7F7F7F7F7F7F7F7F7FFCFCFCFCFCFCFCFCFCFCFCFCFCFCFCFCFCFCFCFCFCFCFCFCFCFCFCFCFCFCFCFCFCFCFCFCFCFCFCFCFCFCFCFCFCFCFCFCB6
:401B0000FCFC030303030303030303030303030303030303030303030303030303030303030303030303030303030303030303030303030343000000F8B500BFF8BC08BCF0
:401B40009E4670474D0000001D070000F8B500BFF8BC08BC9E46704729000000701B0000C880FF1F8800000048100000000000000000000001FFFFFFFF0000007F800000E4
:401B8000030400000000E02EC05D00001800000000366E010000000000000000000000000000000000000000000000000000000000000000341B00000000000000000000E7
:401BC00000000000000000000000000000000000000000000000000000000000000000000000000000000000000000000000000000000000EC80FF1F00000000000000005B
:401C000000000000000000000000000000000000000000000000000000000000000000000000000000000000000000000000000000000000000000000000000000000000A4
:401C40000000000000000000000000000000000000000000000000000000000000000000000000000000000000000000000000000000000000000000000000000000000064
:401C80000000000000000000000000000000000000000000000000000000000000000000000000000000000000000000000000000000000000000000000000000000000024
:401CC00000000000000000000000000000000000000000000000000000000000000000000000000000000000000000000000000000000000000000000000000000000000E4
:020000040003F7
:0200000480007A
:4000000001520040015A00400264004001650040020301400404014004050140010701405708014036090140410A01402E0B0140550C01403E0D0140500E0140340F0140AD
:400040000215014001170140431801403A190140061B014007400140094101400742014001430140044401400A4501400546014005470140064801400C490140024C014035
:40008000024D0140055001400251014014019F018B388C0F8872E602EE0439803F4059045F012001E208E401EA02B4010101021004070508080709020D270E080F18130748
:4000C0001404160119181A081D03200121102206251C261027232802293F2A012D182F27320833203407351C3610370339083E444041410642024403460C47E0482449FFEF
:400100004AFF4BFF4C624DA04EF04F41500C580459045A045C665D065F016640670269106A306B106D106E106F12800282348404860A8E2E95019C039D029E04A302A801E2
:40014000AA3CAB02B018B428B607B703B908BAA2BBC0D804D904DC33DF010046042806820A020E18120814881704184419211A021D401F14200222482510260427062921F0
:400180002C993248348237203E583F02424043014402459047094C08568288808B109120921094289622972898089B089D429E519F02A301C0FDC261C472CAF5CCBACEF027
:4001C000D0F0D220EC10010302800608070409030A020E200F0112401510160419031A101D011E011F02203F22C0231824C3263C28CC2A332C552EAA2F02330834FF3507DD
:400200003710380239803B083E103F10580459045B045C445F0183028B02960798029B049C04A701AC02AE05B104B406B503B601B828BA80BB02BF10D418D604D804D904F8
:40024000DB04DC22DD60DF01012202110A660E2510AA1780180419011E252158278829012A402F103020310832403610380439913E103F025F026540678868AA69116A80A5
:40028000812087409250942895209808A301AD10B008B301C00FC2EFC48FCA49CC2ECEAFD680D8B002080430050208300C030E0411031420161018031A041E051F01200330
:4002C0002103220C240A260428102A2031033230360F39023A803F014001470449FF4A074BFF4C404D204EF04F05500854015604580459045A045B045C065D665F01604026
:4003000061A86240632082FE830184028644900392049410968697079B059C209E869F0FA401A6FCA71FA804AAFAAB06AC0CAE82AF07B007B105B308B478B503B6C0B71091
:40034000B808BAA2BBAAD804D904DC11DF010006042A07020A610CA00E101010120A14481504180419A41A411D401E101F4020022109225A274029A42C402F4031083250A3
:400380003680370239023D043F0447404C804E8057085C805D015F186410650467408740900291019314978098809B0A9D40A020A480A708A918C0FCC2EDC477CA8ECC9EDB
:4003C000CE41D010D6F0D880E8010102030C081009180B060C2C0E110F061030120C1318141415011A031C091D021E101F1C2040241C26222B103301341F351E3660388063
:400400003B203F04580459045C665F0181088506870188018A028C0892019303960897019A049E089F05A008A306AA08AB02B002B204B401B508B608B707BB80BE40BF10A9
:40044000C016C104C50BC6C0C7E0C829C9FFCAFFCBFFCEF0CF44D00CD804D904DA04DC67DD06DF01E6C0EA40EB0203090410054006020A250B800C800D420E080F301080AA
:4004800013041520170218021A0F1C101D121E02211823042680270B2B082E012F08328535403608370239A03A023D013F06460247024E185420571178807A0188808A082D
:4004C0008E04C0C3C2FFC45CCAA4CCDBCECDD090D220E00AEC18E0040001012403800401050808010B040C060D7C0E180F0111671318141A151C16041762181A19181A0478
:400500001C101D10201E236324082560281829402D7F2E043002321C331F3580360137783A283B883E0156025710580459045B045C665D605F01844A86148C4E8E909403E8
:40054000960498219A9C9C049E4AB060B207B480B618B920BAABD804D904DC55DF010044042A070209200A210C900D080E0814021680172818441A211D881E441F402120D8
:400580002510260427032E902F503540360437213DA03E083F025E406C157480754076087728820188018948921093209428962098029C119D029E599F21A301A488A580EF
:4005C000AD10C0F5C2E7C4F0CAF0CCF0CEF0D610E80286509E50AD02B008B284EC1030023320340237803C80CCF0CE20138084029C029F80A442AB20C440E640EE208004B0
:400600008402A402AC40E210E480EA4094087C018E10DE01E20200020A205204940196209A04AA04C008C208D40445089401B001D001EA013020A508B401CC08EC08220436
:40064000251481049408C8E0E02018081D202304852087049408AE04B510C6C0C810E050EC10A508AC20B508EC0800DE0C5C0EC210601C6000FF10020000000000003000BA
:40068000000B0B0000000000120001F2E200020000000000BB001801000A00000000000000000000000000000000000000000000000000000000000000000000000000005D
:4006C00000000000000000000000000000000000000000000000000000000000000000000000000000000000000000000000000000000000000000000000000000000000FA
:4007000000000000000000000000000000000000000000000000000000000000000000000000000000000000000000000000000000000000000000000000000000000000B9
:400740000000000000000000000000000000000000000000000000000000000000000000000000000000000000000000000000000000000000000000000000000000000079
:400780000000000000000000000000000000000000000000000000000000000000000000000000000000000000000000000000000000000000000000000000000000000039
:0200000490006A
:0400000000004005B7
:0200000490105A
:04000000BC90ACAF55
:0200000490303A
:020000002324B7
:0200000490402A
:4000000000000000000000000000000000000000000000000000000000000000000000000000000000000000000000000000000000000000000000000000000000000000C0
:400040000000000000000000000000000000000000000000000000000000000000000000000000000000000000000000000000000000000000000000000000000000000080
:400080000000000000000000000000000000000000000000000000000000000000000000000000000000000000000000000000000000000000000000000000000000000040
:4000C0000000000000000000000000000000000000000000000000000000000000000000000000000000000000000000000000000000000000000000000000000000000000
:0200000490501A
:0C00000000012E16006900012E22238D45
:00000001FF